:020000040801F1
:1000000000000320950B01082909010831090108A6
:1000100039090108410901084909010800000000E7
:10002000000000000000000000000000510901086D
:100030005F090108000000006D0901087B09010843
:10004000ED0B0108ED0B0108ED0B0108ED0B0108AC
:10005000ED0B0108ED0B0108ED0B0108ED0B01089C
:10006000ED0B0108ED0B0108ED0B0108ED0B01088C
:10007000ED0B0108ED0B0108ED0B0108ED0B01087C
:10008000ED0B0108ED0B0108ED0B0108ED0B01086C
:10009000ED0B0108ED0B0108ED0B0108ED0B01085C
:1000A000ED0B0108ED0B0108ED0B0108ED0B01084C
:1000B000ED0B0108ED0B0108ED0B0108ED0B01083C
:1000C000ED0B0108ED0B0108ED0B0108ED0B01082C
:1000D000ED0B0108ED0B0108ED0B0108ED0B01081C
:1000E000ED0B0108ED0B0108ED0B0108ED0B01080C
:1000F000ED0B0108ED0B0108ED0B0108ED0B0108FC
:10010000ED0B0108ED0B0108ED0B0108ED0B0108EB
:10011000ED0B0108ED0B0108ED0B0108ED0B0108DB
:10012000ED0B0108ED0B0108ED0B0108ED0B0108CB
:0C013000ED0B0108ED0B0108ED0B0108C0
:1001400010B5054C237833B9044B13B10448AFF311
:1001500000800123237010BD8C00002000000000EF
:10016000A04B010808B5034B1BB103490348AFF38B
:10017000008008BD0000000090000020A04B010896
:1001800001F0FF01102A2BDB10F0070F08D010F848
:10019000013B013A8B422DD010F0070F42B3F6D14C
:1001A000F0B441EA012141EA014122F007047FF065
:1001B00000070023F0E80256083C85EA010586EABC
:1001C000010685FA47F5A3FA87F586FA47F6A5FAF8
:1001D00087F68EB9EED1F0BC01F0FF0102F0070204
:1001E00032B110F8013B013A83EA010313B1F8D1AF
:1001F0000020704701387047002D06BF3546033890
:10020000073815F0010F07D1013015F4807F02BFC8
:10021000013015F4C03F0130F0BC0138704700BF19
:1002200053B94AB9002908BF00281CBF4FF0FF315D
:100230004FF0FF3000F088B9ADF1080C6DE904CE45
:1002400000F006F8DDF804E0DDE9022304B07047B1
:100250002DE9F047089D8E4604468846002B4AD17A
:100260008A42174662D9B2FA82F64EB1C6F120032D
:1002700001FA06F820FA03F3B74043EA0808B4404D
:100280004FEA174E1FFA87FCB8FBFEF1230C0EFB5A
:10029000118843EA084301FB0CF29A4209D9FB1882
:1002A00001F1FF3080F0EA809A4240F2E7800239A3
:1002B0003B449A1AA3B2B2FBFEF00EFB102243EAB3
:1002C000024300FB0CFC9C4509D9FB1800F1FF32EE
:1002D00080F0D6809C4540F2D3803B44023840EA0F
:1002E0000140A3EB0C0300211DB1F3400022C5E93E
:1002F0000032BDE8F0878B4205D90DB1C5E9000198
:1003000000210846F5E7B3FA83F1002946D1734589
:1003100002D3824200F20581841A6EEB03020120AF
:100320009046002DE5D0C5E90048E2E7002A00F03C
:100330009080B2FA82F6002E40F0A4808A1A030C54
:100340004FEA174E80B2BCB20121B2FBFEFC0EFB9D
:100350001C2243EA024304FB0CF29A4207D9FB1821
:100360000CF1FF3802D29A4200F2E080C4469B1A98
:10037000B3FBFEF20EFB123340EA034302FB04F42C
:100380009C4207D9FB1802F1FF3002D29C4200F2D6
:10039000CA8002461B1B42EA0C40A5E7C1F12006B9
:1003A0008B4022FA06F71F430EFA01F420FA06F3F7
:1003B0002EFA06FE4FEA1749234300FA01F81FFA06
:1003C00087FCBEFBF9F01C0C09FB10EE44EA0E445E
:1003D00000FB0CFEA64502FA01F209D93C1900F116
:1003E000FF3A80F09C80A64540F2998002383C4458
:1003F000A4EB0E041FFA83FEB4FBF9F309FB1344CC
:100400004EEA044403FB0CFCA44508D93C1903F153
:10041000FF3E80F08280A4457FD9023B3C4443EA02
:100420000040A4EB0C04A0FB02EC64457346E146DB
:1004300062D35FD05DB1B8EB030264EB090404FA48
:1004400006F622FA01F31E43CC40C5E90064002100
:100450004FE7B1FBF2FC010C41EA0E4180B240EAE9
:1004600001423B4638463C46B846BE462026B1FBD4
:10047000F7F1A2EB080241EA0C4166E7014618E7F2
:1004800010462CE7C6F120022EFA02F3B740B14025
:1004900020FA02F24FEA174E0A43B3FBFEF8BCB251
:1004A0000EFB1833110C41EA034108FB04F9B0407C
:1004B00089454FEA104380B23ED9791808F1FF3CD4
:1004C00001D289451FD8A1EB0901B1FBFEF909FB57
:1004D00004F80EFB191192B242EA0142424529D2B8
:1004E000BA1809F1FF31C4D24245C2D2A9F10201C2
:1004F0003A44BEE7F0459DD2BEEB02036CEB070C1D
:100500000138E14696E7A7EB09094944A8F1020C36
:10051000B1FBFEF909FB04F8DBE773467FE75046C1
:1005200066E70846FDE63B44023A33E7ACF1020CCD
:100530003B441CE749469CE7A1EB0901C446B1FBDB
:10054000FEF909FB04F8C4E7704700BF80B485B02A
:1005500000AF78604FF0B043DA6C4FF0B0417B6889
:100560001343CB644FF0B043DA6C7B681340FB60FD
:10057000FB6800BF1437BD465DF8047B7047000080
:1005800080B500AF00F02AFC00F04CF800F0A2F8B3
:1005900000F00AF900F0BCF8002000F041FB012057
:1005A00000F03EFB022000F03BFB0121002000F0A8
:1005B000A5FB0121012000F0A1FB0121022000F098
:1005C0009DFB002000F066FB012000F063FB022091
:1005D00000F060FB0023022219460F4803F016FCCE
:1005E0000E4803F07BFC002000F054FB012000F0DB
:1005F00051FB0B4B1B68184600F076FC002000F006
:1006000063FB012000F060FB054B1B68184600F0FF
:100610006BFC00BFE4E700BFB84B0108D84B0108F2
:100620000800002080B59AB000AF07F120034822EF
:100630000021184603F032FD3B1D00221A605A606B
:100640009A60DA601A615A619A61214B1B6823F43F
:10065000C0631F4A43F4007313601D4B1B6803F40F
:10066000C0633B603B6822233B624FF48073FB62B4
:100670000123FB6340233B6300233B64A0237B6493
:100680000023FB6407F12003184601F07DFA0346BE
:10069000002B01D000F0C2F86F237B600023BB6009
:1006A0000023FB6000233B6100237B610023BB61CF
:1006B0000023FB613B1D0121184601F0D9FD0346D3
:1006C000002B01D000F0AAF800BF6837BD4680BDFE
:1006D0000004005880B594B000AF3B465022002182
:1006E000184603F0DBFC4FF400533B600023BB646F
:1006F0000023FB643B46184602F0F7F90346002B43
:1007000001D000F08BF800BF5037BD4680BD00001F
:1007100080B500AF224B234A1A60214B4FF4E132DF
:100720005A601F4B00229A601D4B0022DA601C4B5E
:1007300000221A611A4B0C225A61194B00229A614D
:10074000174B0022DA61164B00221A62144B00226A
:100750005A62134B00229A62114802F06DFC034664
:10076000002B01D000F05AF800210D4803F0C2F927
:100770000346002B01D000F051F80021084803F097
:10078000F7F90346002B01D000F048F8044803F0C5
:1007900078F90346002B01D000F040F800BF80BD7F
:1007A000A80000200038014080B586B000AF3B1D96
:1007B00000221A605A609A60DA601A610420FFF71A
:1007C000C5FE0120FFF7C2FE0220FFF7BFFE4FF477
:1007D000C0537B600223BB600023FB6000233B61AE
:1007E0000A237B613B1D19464FF0904000F0B0FC9E
:1007F00000BF1837BD4680BD80B582B000AF7860BD
:10080000391D4FF0FF330122034802F065FC7B687D
:1008100018460837BD4680BDA800002080B400AF50
:1008200072B600BF00BFFDE780B485B000AF78604E
:100830004FF0B043DA6C4FF0B0417B681343CB64A8
:100840004FF0B043DA6C7B681340FB60FB6800BF7D
:100850001437BD465DF8047B704780B485B000AFA7
:1008600078604FF0B0431A6E4FF0B0417B6813438D
:100870000B664FF0B0431A6E7B681340FB60FB6859
:1008800000BF1437BD465DF8047B704780B400AFED
:1008900000BFBD465DF8047B7047000080B59CB08A
:1008A00000AF786007F15C0300221A605A609A601A
:1008B000DA601A6107F10C0350220021184603F098
:1008C000EDFB7B681B68164A934224D10123FB6031
:1008D00000237B6207F10C03184602F006F9034679
:1008E000002B01D0FFF79AFF4FF48040FFF7B5FFD0
:1008F0000220FFF799FFC023FB6502233B6600231C
:100900007B660023BB660723FB6607F15C03194681
:10091000044800F01DFC00BF7037BD4680BD00BF1D
:10092000003801400004004880B400AF00BFFDE77C
:1009300080B400AF00BFFDE780B400AF00BFFDE7AB
:1009400080B400AF00BFFDE780B400AF00BFFDE79B
:1009500080B400AF00BFBD465DF8047B704780B433
:1009600000AF00BFBD465DF8047B704780B400AFA8
:1009700000BFBD465DF8047B704780B500AF00F056
:1009800087FA00BF80BD80B586B000AFF860B9605F
:100990007A6000237B610AE0AFF300800146BB6808
:1009A0005A1CBA60CAB21A707B6901337B617A69DA
:1009B0007B689A42F0DB7B6818461837BD4680BDDD
:1009C00080B586B000AFF860B9607A6000237B61C3
:1009D00009E0BB685A1CBA601B781846FFF70CFF89
:1009E0007B6901337B617A697B689A42F1DB7B68C2
:1009F00018461837BD4680BD80B483B000AF78601C
:100A00004FF0FF3318460C37BD465DF8047B704746
:100A100080B483B000AF786039603B684FF4005217
:100A20005A60002318460C37BD465DF8047B7047BA
:100A300080B483B000AF7860012318460C37BD4600
:100A40005DF8047B704780B485B000AFF860B96092
:100A50007A60002318461437BD465DF8047B704762
:100A600080B586B000AF7860144A154BD31A7B610D
:100A70007B693B61134B1B68002B02D1114B124A5F
:100A80001A60104B1A687B6813443A699A4207D27D
:100A900003F052FB03460C221A604FF0FF3309E0CB
:100AA000084B1B68FB60074B1A687B681344054AB8
:100AB0001360FB6818461837BD4680BD0000032050
:100AC000000400003C0100209002002080B400AF30
:100AD000264B274A9A60254BD3F88830234A43F4A3
:100AE0007003C2F888304FF0B0431B684FF0B0423B
:100AF00043F0010313604FF0B0434FF4E0229A60DB
:100B00004FF0B0431A684FF0B0411A4B13400B60DE
:100B10004FF0B043D3F894304FF0B04223F00503C8
:100B2000C2F894304FF0B043D3F898304FF0B04251
:100B300023F00103C2F898304FF0B0430E4ADA6058
:100B40004FF0B0430C4A1A614FF0B0431B684FF0AE
:100B5000B04223F4802313604FF0B04300229A6127
:100B600000BFBD465DF8047B704700BF00ED00E0AC
:100B700000000108FBFEF6FA00100422D458C4500D
:100B80000433C4188C42F9D37047036004308842A0
:100B9000FBD370470C488546FFF798FF0B480C497C
:100BA0000C4A0023FFF7EDFF0B480C490C4A0023C9
:100BB000FFF7E7FF0B480C490023FFF7E8FF03F0BE
:100BC000C1FAFFF7DDFCFEE700000320080000206B
:100BD0008C0000203C4D0108000003200000032091
:100BE000C04D01088C00002090020020FEE780B478
:100BF00085B000AF78604FF0B043DA6C4FF0B04191
:100C00007B681343CB644FF0B043DA6C7B681340CE
:100C1000FB60FB6800BF1437BD465DF8047B70477E
:100C200080B588B000AF0346FB7107F10C030022CA
:100C30001A605A609A60DA601A610220FFF7D7FFE3
:100C4000FB79124A32F81330FB6001233B61002329
:100C50007B610223BB61FB790D4A52F8233007F117
:100C60000C021146184600F073FAFB79084A52F854
:100C70002300FB79054A32F813300022194600F0B0
:100C8000D7FB00BF2037BD4680BD00BFBC4C01086C
:100C90001000002080B582B000AF0346FB71FB79E5
:100CA000074A52F82300FB79064A32F81330012232
:100CB000194600F0BDFB00BF0837BD4680BD00BF30
:100CC00010000020BC4C010880B582B000AF034684
:100CD000FB71FB79074A52F82300FB79064A32F888
:100CE00013300022194600F0A3FB00BF0837BD46B1
:100CF00080BD00BF10000020BC4C010880B588B04A
:100D000000AF03460A46FB711346BB7107F10C03A3
:100D100000221A605A609A60DA601A61FB79002B2F
:100D200003D10420FFF763FF0CE0FB79012B03D113
:100D30000820FFF75CFF05E0FB79022B02D10820B9
:100D4000FFF755FFBB79002B17D1FB79204A32F80A
:100D50001330FB6000233B6101237B610223BB61F5
:100D6000FB791C4A52F8233007F10C021146184651
:100D700000F0EEF9012000F0B7F8BB79012B23D188
:100D8000FB79134A32F81330FB6001237B614FF487
:100D900004133B61FB790F4A52F8233007F10C0230
:100DA0001146184600F0D4F9FB790B4AD35C5BB2CC
:100DB00000220F21184600F096F9FB79064AD35C11
:100DC0005BB2184600F0A9F900BF2037BD4680BDD0
:100DD000C44C01081C000020CC4C010880B582B036
:100DE00000AF0023FB710C4B1B680B4A43F480736C
:100DF0001360032000F06CF9002000F00FF80346A8
:100E0000002B02D00123FB7101E0FFF73FFDFB79CE
:100E100018460837BD4680BD0040005880B584B0F4
:100E200000AF78600023FB73174B1B78002B24D096
:100E300001F0CAFB0246144B1B7819464FF47A7333
:100E4000B3FBF1F3B2FBF3F3184600F074F9034679
:100E5000002B0FD17B680F2B09D8002279684FF047
:100E6000FF3000F040F9094A7B68136007E0012376
:100E7000FB7304E00123FB7301E00123FB73FB7BA5
:100E800018461037BD4680BD2C00002028000020E9
:100E900080B400AF064B1B781A46064B1B68134400
:100EA000044A136000BFBD465DF8047B704700BF75
:100EB0002C0000204001002080B400AF034B1B68D1
:100EC0001846BD465DF8047B704700BF4001002016
:100ED00080B400AF034B1B681846BD465DF8047B29
:100EE000704700BF2800002080B584B000AF786054
:100EF000FFF7E2FFB8607B68FB60FB68B3F1FF3F80
:100F000005D00A4B1B781A46FB681344FB6000BFF0
:100F1000FFF7D2FF0246BB68D31AFA689A42F7D8A5
:100F200000BF00BF1037BD4680BD00BF2C000020B1
:100F300080B485B000AF78607B6803F00703FB6086
:100F40000C4BDB68BB60BA684FF6FF031340BB6015
:100F5000FB681A02BB68134343F0BF6343F40033DA
:100F6000BB60044ABB68D36000BF1437BD465DF860
:100F7000047B704700ED00E080B400AF044BDB68F9
:100F80001B0A03F007031846BD465DF8047B704753
:100F900000ED00E080B483B000AF0346FB7197F929
:100FA0000730002B0BDBFB7903F01F02074997F991
:100FB00007305B09012000FA02F241F8232000BF4C
:100FC0000C37BD465DF8047B704700BF00E100E0D0
:100FD00080B483B000AF03463960FB7197F90730E6
:100FE000002B0ADB3B68DAB20C4997F90730120193
:100FF000D2B20B4483F800230AE03B68DAB2084916
:10100000FB7903F00F03043B1201D2B20B441A76B2
:1010100000BF0C37BD465DF8047B704700E100E07F
:1010200000ED00E080B489B000AFF860B9607A608C
:10103000FB6803F00703FB61FB69C3F10703042BA3
:1010400028BF0423BB61FB690433062B02D9FB696B
:10105000033B00E000237B614FF0FF32BB6902FAE3
:1010600003F3DA43BB681A407B699A404FF0FF31C3
:101070007B6901FA03F3D9437B680B40134318469D
:101080002437BD465DF8047B7047000080B582B010
:1010900000AF78607B68013BB3F1807F01D301230F
:1010A0000FE00A4A7B68013B53600F214FF0FF308D
:1010B000FFF78EFF054B00229A60044B07221A604F
:1010C000002318460837BD4680BD00BF10E000E091
:1010D00080B582B000AF78607868FFF729FF00BF65
:1010E0000837BD4680BD80B586B000AF0346B96005
:1010F0007A60FB73FFF740FF78617A68B9687869B6
:10110000FFF790FF024697F90F3011461846FFF798
:101110005FFF00BF1837BD4680BD80B582B000AF0D
:101120000346FB7197F907301846FFF733FF00BFFE
:101130000837BD4680BD80B582B000AF7860786862
:10114000FFF7A4FF034618460837BD4680BD0000E0
:1011500080B487B000AF7860396000237B614CE1D8
:101160003B681A6801217B6901FA03F31340FB60B5
:10117000FB68002B00F03E813B685B6803F00303D3
:10118000012B05D03B685B6803F00303022B30D1D1
:101190007B689B683B617B695B00032202FA03F377
:1011A000DB433A6913403B613B68DA687B695B006B
:1011B00002FA03F33A6913433B617B683A699A6028
:1011C0007B685B683B6101227B6902FA03F3DB43C6
:1011D0003A6913403B613B685B681B0903F00102FD
:1011E0007B6902FA03F33A6913433B617B683A690E
:1011F0005A603B685B6803F00303032B17D07B68DE
:10120000DB683B617B695B00032202FA03F3DB438B
:101210003A6913403B613B689A687B695B0002FA5C
:1012200003F33A6913433B617B683A69DA603B68D0
:101230005B6803F00303022B23D17B69DA087B6828
:10124000083253F822303B617B6903F007039B00AF
:101250000F2202FA03F3DB433A6913403B613B6818
:101260001A697B6903F007039B0002FA03F33A69EA
:1012700013433B617B69DA087B680832396943F8BC
:1012800022107B681B683B617B695B00032202FACA
:1012900003F3DB433A6913403B613B685B6803F04F
:1012A00003027B695B0002FA03F33A6913433B6173
:1012B0007B683A691A603B685B6803F44033002B33
:1012C00000F09880544A7B699B08023352F823301F
:1012D0003B617B6903F003039B000F2202FA03F3D7
:1012E000DB433A6913403B617B68B3F1904F19D0FF
:1012F0007B684A4A934213D07B68494A93420DD097
:101300007B68484A934207D07B68474A934201D1A1
:10131000042308E0072306E0032304E0022302E09D
:10132000012300E000237A6902F003029200934057
:101330003A6913433B6138497B699B0802333A6938
:1013400041F82320394B1B683B61FB68DB433A695A
:1013500013403B613B685B6803F48013002B03D0B0
:101360003A69FB6813433B61304A3B6913602F4B7A
:101370005B683B61FB68DB433A6913403B613B6858
:101380005B6803F40013002B03D03A69FB68134336
:101390003B61264A3B695360244BD3F880303B6164
:1013A000FB68DB433A6913403B613B685B6803F4CD
:1013B0008033002B03D03A69FB6813433B611B4A1F
:1013C0003B69C2F88030194BD3F884303B61FB682D
:1013D000DB433A6913403B613B685B6803F40033CD
:1013E000002B03D03A69FB6813433B610F4A3B690A
:1013F000C2F884307B6901337B613B681A687B6982
:1014000022FA03F3002B7FF4ABAE00BF00BF1C3702
:10141000BD465DF8047B70470000014000040048B1
:1014200000080048000C0048001000480008005860
:1014300080B483B000AF78600B467B8013467B702E
:101440007B78002B03D07A887B689A6102E07A88E7
:101450007B689A6200BF0C37BD465DF8047B70471D
:1014600080B400AF054B1B68044A43F480731360DB
:1014700000BFBD465DF8047B704700BF0004005804
:1014800080B400AF044B1B6803F4C0631846BD462C
:101490005DF8047B704700BF0004005880B400AFC3
:1014A0004FF0B0431B6803F48013B3F5801F01D1E4
:1014B000012300E000231846BD465DF8047B704719
:1014C00080B400AF4FF0B0431B684FF0B04243F41C
:1014D0008033136000BFBD465DF8047B704780B465
:1014E00000AF4FF0B0431B684FF0B04223F480339D
:1014F000136000BFBD465DF8047B704780B400AF49
:101500004FF0B0431B6803F40033B3F5003F01D143
:10151000012300E000231846BD465DF8047B7047B8
:1015200080B400AF4FF0B0431B684FF0B04243F4BB
:101530008073136000BFBD465DF8047B704780B4C4
:1015400000AF4FF0B0431B684FF0B04223F48073FC
:10155000136000BFBD465DF8047B704780B400AFE8
:101560004FF0B0431B6803F48063B3F5806F01D183
:10157000012300E000231846BD465DF8047B704758
:1015800080B483B000AF78604FF0B0435B6823F065
:10159000FE427B681B064FF0B04113434B6000BF17
:1015A0000C37BD465DF8047B704780B400AF4FF048
:1015B000B043D3F898304FF0B04243F00103C2F883
:1015C000983000BFBD465DF8047B704780B400AF23
:1015D0004FF0B043D3F898304FF0B04223F00103FE
:1015E000C2F8983000BFBD465DF8047B704780B4F8
:1015F00000AF4FF0B043D3F8983003F00203022B52
:1016000001D1012300E000231846BD465DF8047BAC
:10161000704780B400AF4FF0B043D3F890304FF034
:10162000B04243F00103C2F8903000BFBD465DF800
:10163000047B704780B400AF4FF0B043D3F89030D4
:101640004FF0B04223F00103C2F8903000BFBD4616
:101650005DF8047B704780B400AF4FF0B043D3F81F
:1016600090304FF0B04243F00403C2F8903000BF16
:10167000BD465DF8047B704780B400AF4FF0B043C7
:10168000D3F890304FF0B04223F00403C2F890300A
:1016900000BFBD465DF8047B704780B400AF4FF0DB
:1016A000B043D3F8903003F00203022B01D10123A1
:1016B00000E000231846BD465DF8047B704780B407
:1016C00000AF4FF0B043D3F894304FF0B04243F046
:1016D0000103C2F8943000BFBD465DF8047B70473B
:1016E00080B400AF4FF0B043D3F894304FF0B04225
:1016F00023F00103C2F8943000BFBD465DF8047BBF
:10170000704780B400AF4FF0B043D3F8943003F08B
:101710000203022B01D1012300E000231846BD463D
:101720005DF8047B704780B400AF4FF0B043D3F84E
:1017300094304FF0B04243F00403C2F8943000BF3D
:10174000BD465DF8047B704780B400AF4FF0B043F6
:10175000D3F894304FF0B04223F00403C2F8943031
:1017600000BFBD465DF8047B704780B400AF4FF00A
:10177000B043D3F8943003F00803082B01D10123C0
:1017800000E000231846BD465DF8047B704780B436
:1017900083B000AF78604FF0B043D3F8943023F4B7
:1017A00070627B681B024FF0B0411343C1F8943064
:1017B00000BF0C37BD465DF8047B704780B400AFB6
:1017C0004FF0B0431B684FF0B04243F00103136089
:1017D00000BFBD465DF8047B704780B400AF4FF09A
:1017E000B0431B684FF0B04223F00103136000BF09
:1017F000BD465DF8047B704780B400AF4FF0B04346
:101800001B6803F00203022B01D1012300E0002337
:101810001846BD465DF8047B704780B483B000AFC6
:1018200078604FF0B0431B6823F0F0024FF0B041F6
:101830007B6813430B6000BF0C37BD465DF8047B2B
:10184000704780B483B000AF4FF0B0431B6803F023
:10185000F0037B607B68B02B01D9B0237B607B6891
:1018600018460C37BD465DF8047B704780B483B0E2
:1018700000AF78604FF0B0435B6823F47F427B6831
:101880001B024FF0B04113434B6000BF0C37BD4605
:101890005DF8047B704780B483B000AF78604FF090
:1018A000B0439B6823F003024FF0B0417B681343C1
:1018B0008B6000BF0C37BD465DF8047B704780B479
:1018C00000AF4FF0B0439B6803F00C031846BD46D1
:1018D0005DF8047B704780B483B000AF78604FF050
:1018E000B0439B6823F0F0024FF0B0417B68134394
:1018F0008B6000BF0C37BD465DF8047B704780B439
:1019000083B000AF78604FF0B043D3F8083123F0D4
:10191000F0024FF0B0417B681343C1F8083100BFBB
:101920000C37BD465DF8047B704780B483B000AFD0
:1019300078604FF0B043D3F8083123F00F027B6892
:101940001B094FF0B0411343C1F8083100BF0C37F9
:10195000BD465DF8047B704780B483B000AF78600B
:101960004FF0B0439B6823F4E0624FF0B0417B68D6
:1019700013438B6000BF0C37BD465DF8047B704796
:1019800080B483B000AF78604FF0B0439B6823F41D
:1019900060524FF0B0417B6813438B6000BF0C373F
:1019A000BD465DF8047B704780B400AF4FF0B04394
:1019B0009B6803F0F0031846BD465DF8047B704752
:1019C00080B400AF4FF0B043D3F808311B0103F0EF
:1019D000F0031846BD465DF8047B704780B400AF45
:1019E0004FF0B0439B6803F4E0631846BD465DF8D2
:1019F000047B704780B400AF4FF0B0439B6803F4A2
:101A000060531846BD465DF8047B704780B400AF54
:101A10004FF0B0431B684FF0B04243F08073136047
:101A200000BFBD465DF8047B704780B400AF4FF047
:101A3000B0431B684FF0B04223F08073136000BFC7
:101A4000BD465DF8047B704780B400AF4FF0B043F3
:101A50001B6803F00073B3F1007F01D1012300E0A4
:101A600000231846BD465DF8047B704780B400AF84
:101A70004FF0B043DB681B0A03F07F031846BD46F6
:101A80005DF8047B704780B400AF4FF0B043DB6873
:101A900003F060431846BD465DF8047B704780B490
:101AA00000AF4FF0B043DB6803F070031846BD464B
:101AB0005DF8047B704780B400AF4FF0B043DB6843
:101AC00003F003031846BD465DF8047B704780B4FD
:101AD00000AF4FF0B0439B6803F48033B3F5803F11
:101AE00001D1012300E000231846BD465DF8047BC8
:101AF000704780B400AF4FF0B043D3F8083103F41F
:101B00000033B3F5003F01D1012300E00023184664
:101B1000BD465DF8047B704780B400AF4FF0B04322
:101B2000D3F8083103F48033B3F5803F01D10123AA
:101B300000E000231846BD465DF8047B704780B482
:101B400000AF4FF0B0439B6803F40033B3F5003FA0
:101B500001D1012300E000231846BD465DF8047B57
:101B6000704780B400AF4FF0B0439B6803F480230C
:101B7000B3F5802F01D1012300E000231846BD46B4
:101B80005DF8047B7047000090B58DB000AF7860C1
:101B90007B68002B01D1012363E37B681B6803F0A2
:101BA0002003002B00F08D80FFF789FEF862FFF71D
:101BB00082FFB862FB6A002B05D0FB6A0C2B47D171
:101BC000BB6A012B44D17B68DB69002B01D1012367
:101BD00047E37B685C6AFFF734FE03469C4214D9F6
:101BE0007B685B6A184600F02FFD0346002B01D08E
:101BF000012336E37B685B6A1846FFF70EFE7B68BD
:101C00001B6A1846FFF732FE13E07B685B6A1846D2
:101C1000FFF703FE7B681B6A1846FFF727FE7B6809
:101C20005B6A184600F010FD0346002B01D001232B
:101C300017E300F0C9FC0346A44A1360A44B1B68D9
:101C40001846FFF7EBF80346002B39D0012308E3D1
:101C50007B68DB69002B1ED0FFF7B0FDFFF72CF986
:101C6000786208E0FFF728F902467B6AD31A022B54
:101C700001D90323F5E2FFF7BFFD0346002BF1D0A6
:101C80007B685B6A1846FFF7C8FD7B681B6A1846CD
:101C9000FFF7ECFD15E0FFF7A0FDFFF70DF9786207
:101CA00008E0FFF709F902467B6AD31A022B01D933
:101CB0000323D6E2FFF7A0FD0346002BF1D100E09D
:101CC00000BF7B681B6803F00103002B47D0FFF7C0
:101CD000F6FD3862FFF7EFFEF8613B6A082B05D08E
:101CE0003B6A0C2B08D1FB69032B05D17B685B6831
:101CF000002B34D10123B4E27B685B68B3F5803FED
:101D000002D1FFF7DDFB01E0FFF7E9FB7B685B68D1
:101D1000002B12D0FFF7D0F8786208E0FFF7CCF87C
:101D200002467B6AD31A642B01D9032399E2FFF799
:101D3000E5FB0346002BF1D011E0FFF7BDF8786218
:101D400008E0FFF7B9F802467B6AD31A642B01D981
:101D5000032386E2FFF7D2FB0346002BF1D17B6819
:101D60001B6803F00203002B4CD0FFF7A8FDB861FD
:101D7000FFF7A1FE7861BB69042B05D0BB690C2B72
:101D80000ED17B69022B0BD17B68DB68002B01D164
:101D9000012366E27B681B691846FFF7F1FB31E01F
:101DA0007B68DB68002B19D0FFF7BAFBFFF784F8DC
:101DB000786208E0FFF780F802467B6AD31A022BAC
:101DC00001D903234DE2FFF7C9FB0346002BF1D0F5
:101DD0007B681B691846FFF7D3FB13E0FFF7AFFBE7
:101DE000FFF76AF8786208E0FFF766F802467B6A58
:101DF000D31A022B01D9032333E2FFF7AFFB0346CB
:101E0000002BF1D17B681B6803F00803002B06D17F
:101E10007B681B6803F01003002B00F0A3807B6835
:101E20005B69002B76D07B681B6803F01003002BE6
:101E300046D0FFF766FC0346002B13D1FFF73FFCAB
:101E4000FFF73AF8786208E0FFF736F802467B6A57
:101E5000D31A022B01D9032303E2FFF752FC0346F6
:101E6000002BF1D0FFF75FFCFFF726F8786208E05F
:101E7000FFF722F802467B6AD31A032B01D903230A
:101E8000EFE1FFF772FC0346002BF1D07B689B6902
:101E90001846FFF77CFCFFF723FCFFF70DF878628C
:101EA00008E0FFF709F802467B6AD31A022B01D932
:101EB0000323D6E1FFF725FC0346002BF1D151E0C7
:101EC000FFF7FDFBFEF7F8FF78620CE00C00002046
:101ED00028000020FEF7F0FF02467B6AD31A022B8F
:101EE00001D90323BDE1FFF70CFC0346002BF1D021
:101EF000FFF72AFC08E0FEF7DFFF02467B6AD31AF1
:101F0000032B01D90323ACE1FFF72FFC0346002B81
:101F1000F1D127E0FFF718FCFEF7CEFF786208E06A
:101F2000FEF7CAFF02467B6AD31A032B01D90323AB
:101F300097E1FFF71AFC0346002BF1D1FFF7D0FB26
:101F4000FEF7BAFF786208E0FEF7B6FF02467B6A4A
:101F5000D31A022B01D9032383E1FFF7D2FB0346F7
:101F6000002BF1D17B681B6803F00403002B5BD0CE
:101F7000A74B1B6803F48073002B14D1FFF770FA92
:101F8000FEF79AFF786208E0FEF796FF02467B6A4A
:101F9000D31A022B01D9032363E19D4B1B6803F481
:101FA0008073002BF0D07B689B68012B02D1FFF778
:101FB00030FB0CE07B689B68052B04D1FFF74BFBE3
:101FC000FFF727FB03E0FFF735FBFFF755FB7B68C7
:101FD0009B68002B14D0FEF76FFF78620AE0FEF7D3
:101FE0006BFF02467B6AD31A41F28832934201D9D1
:101FF000032336E1FFF751FB0346002BEFD013E03C
:10200000FEF75AFF78620AE0FEF756FF02467B6A47
:10201000D31A41F28832934201D9032321E1FFF719
:102020003CFB0346002BEFD17B681B6803F04003A9
:10203000002B2CD07B689B6A002B14D0FFF7B5FADD
:10204000FEF73AFF786208E0FEF736FF02467B6A49
:10205000D31A022B01D9032303E1FFF7C8FA034681
:10206000002BF1D013E0FFF7B1FAFEF725FF7862FD
:1020700008E0FEF721FF02467B6AD31A022B01D942
:102080000323EEE0FFF7B3FA0346002BF1D17B68A0
:10209000DB6A002B00F0E480FFF711FC38614FF0A1
:1020A000B043DB68FB607B68DB6A022B40F0B480E6
:1020B000FB6803F003027B681B6B9A4223D1FB6829
:1020C00003F070027B685B6B9A421CD1FB681B0AB1
:1020D00003F07F027B689B6B9A4214D1FB6803F488
:1020E00078127B68DB6B9A420DD1FB6803F060626B
:1020F0007B681B6C9A4206D1FB6803F060427B68E8
:102100005B6C9A425DD03B690C2B58D04FF0B043CA
:102110001B6803F08063002B01D00123A1E0FFF7CF
:1021200084FCFEF7C9FE786208E0FEF7C5FE0246B1
:102130007B6AD31A022B01D9032392E04FF0B043FC
:102140001B6803F00073002BEFD14FF0B043DA6847
:10215000304B13407A68116B7A68526B11437A687E
:10216000926B120211437A68D26B11437A68126C37
:1021700011437A68526C0A434FF0B0411343CB606D
:10218000FFF744FC4FF0B043DB684FF0B04243F040
:102190008053D360FEF790FE786208E0FEF78CFE75
:1021A00002467B6AD31A022B01D9032359E04FF070
:1021B000B0431B6803F00073002BEFD050E0012305
:1021C0004FE04FF0B0431B6803F00073002B47D182
:1021D000FFF71CFC4FF0B043DB684FF0B04243F018
:1021E0008053D360FEF768FE786208E0FEF764FE75
:1021F00002467B6AD31A022B01D9032331E04FF048
:10220000B0431B6803F00073002BEFD028E000BF41
:10221000000400588C80C1113B690C2B1ED0FFF7C5
:1022200004FCFEF749FE786208E0FEF745FE024630
:102230007B6AD31A022B01D9032312E04FF0B0437B
:102240001B6803F00073002BEFD14FF0B043DA6846
:102250004FF0B041054B1340CB6001E0012300E09B
:10226000002318463437BD4690BD00BFFCFFFEEE8C
:1022700080B584B000AF786039607B68002B01D1F5
:1022800001232DE1984B1B6803F007033A689A423B
:102290001BD9954B1B6823F0070293493B681343F6
:1022A0000B60FEF709FEF86008E0FEF705FE024647
:1022B000FB68D31A022B01D9032311E18A4B1B6857
:1022C00003F007033A689A42EFD17B681B6803F07A
:1022D0000203002B16D07B689B681846FFF7FBFAB9
:1022E000FEF7EAFDF86008E0FEF7E6FD0246FB684F
:1022F000D31A022B01D90323F2E0FFF7E8FB0346D0
:10230000002BF1D07B681B6803F02003002B16D054
:102310007B685B691846FFF7F2FAFEF7CDFDF860BF
:1023200008E0FEF7C9FD0246FB68D31A022B01D96B
:102330000323D5E0FFF7DDFB0346002BF1D07B68DC
:102340001B6803F04003002B16D07B689B6918467E
:10235000FFF7EBFAFEF7B0FDF86008E0FEF7ACFD22
:102360000246FB68D31A022B01D90323B8E0FFF71A
:10237000D3FB0346002BF1D07B681B6803F00403FA
:10238000002B16D07B68DB681846FFF7E5FAFEF7EE
:1023900093FDF86008E0FEF78FFD0246FB68D31A54
:1023A000022B01D903239BE0FFF7C9FB0346002B57
:1023B000F1D07B681B6803F00803002B17D07B6803
:1023C0001B69DB001846FFF7DBFAFEF775FDF860C6
:1023D00008E0FEF771FD0246FB68D31A022B01D913
:1023E00003237DE0FFF7BDFB0346002BF1D07B68A4
:1023F0001B6803F00103002B43D07B685B68022B52
:1024000006D1FFF77BF80346002B1ED1012367E0BE
:102410007B685B68032B06D1FFF716FB0346002B96
:1024200013D101235CE07B685B68002B06D1FFF7CA
:10243000E3F90346002B08D1012351E0FFF78EF8A2
:102440000346002B01D101234AE07B685B681846F4
:10245000FFF721FAFEF730FDF8600AE0FEF72CFDE9
:102460000246FB68D31A41F28832934201D9032312
:1024700036E0FFF724FA02467B685B689B009A42CD
:10248000ECD1194B1B6803F007033A689A421BD240
:10249000154B1B6823F0070213493B6813430B607D
:1024A000FEF70AFDF86008E0FEF706FD0246FB684D
:1024B000D31A022B01D9032312E00B4B1B6803F044
:1024C00007033A689A42EFD100F07EF80346074AC4
:1024D0001360FEF7FDFC03461846FEF79FFC03461B
:1024E00018461037BD4680BD004000580C00002043
:1024F00090B585B000AFFFF7E2F978607B68002BFC
:102500000AD1FFF79EF903461B0903F00F032B4A7C
:1025100052F82330FB604BE07B68042B02D1284B40
:10252000FB6045E07B68082B0AD1FEF7B7FF034646
:10253000012B02D1224BFB603AE0224BFB6037E0DB
:10254000FFF7B9FA38603B68022B03D03B68032BD6
:1025500003D00DE01A4BBB6015E0FEF79FFF03466A
:10256000012B02D1164BBB600DE0164BBB600AE09D
:10257000FFF767F903461B0903F00F030F4A52F8F0
:102580002330BB6000BFFFF771FA0246BB6803FB54
:1025900002F4FFF784FA03461B090133B4FBF3F49A
:1025A000FFF771FA03465B0F0133B4FBF3F3FB60F3
:1025B000FB6818461437BD4690BD00BF7C4C01082F
:1025C0000024F4000048E80198B500AFFFF790FF41
:1025D0000446FFF7E9F903461B0903F00F03034A1A
:1025E00052F82330B4FBF3F3184698BD1C4C010895
:1025F00098B500AFFFF7E8FF0446FFF7EFF9034691
:102600001B0A03F00703044A52F8233003F01F03A8
:1026100024FA03F3184698BD5C4C010898B500AF46
:10262000FFF7D2FF0446FFF7E5F90346DB0A03F0A4
:102630000703044A52F8233003F01F0324FA03F37C
:10264000184698BD5C4C010890B585B000AF786025
:102650007B68B02B03D9154BDB6AFB6007E07B6816
:102660001B0903F00F03114A52F82330FB60FFF7F8
:10267000A7F903461B0903F00F030D4A52F8233054
:10268000FA68B2FBF3F3BB60BB680A4AA2FB032300
:102690009C0CFEF7F5FE03461946204600F00CF8A8
:1026A000034618461437BD4690BD00BF7C4C010858
:1026B0001C4C010883DE1B4390B593B000AF7860DB
:1026C0003960374B07F128040FCB84E80F00354AF7
:1026D00007F11C0307CA83E80700334B07F10C041A
:1026E0000FCB84E80F0000237B643B68B3F5007FC9
:1026F0001AD100233B6413E03B6C9B0048333B44FE
:1027000053F8203C7A689A4207D83B6C9B004833C8
:102710003B4453F83C3C7B6420E03B6C01333B641E
:102720003B6C032BE8D919E00023FB6313E0FB6B40
:102730009B0048333B4453F82C3C7A689A4207D8B4
:10274000FB6B9B0048333B4453F83C3C7B6405E007
:10275000FB6B0133FB63FB6B022BE8D9134B1B684C
:1027600023F0070211497B6C13430B60FEF7A4FBB7
:10277000B86308E0FEF7A0FB0246BB6BD31A022B3E
:1027800001D9032307E0094B1B6803F007037A6CA8
:102790009A42EFD1002318464C37BD4690BD00BF8A
:1027A000F04B0108004C01080C4C01080040005897
:1027B00080B400AF4FF0B043D3F8903003F0010382
:1027C000012B01D1012300E000231846BD465DF82E
:1027D000047B704780B400AF4FF0B043D3F8903023
:1027E00003F00203022B01D1012300E0002318466D
:1027F000BD465DF8047B704780B483B000AF78605D
:102800004FF0B043D3F8943023F440424FF0B0413E
:102810007B681343C1F8943000BF0C37BD465DF8A8
:10282000047B704780B483B000AF78604FF0B04352
:102830005B6A23F003024FF0B0417B6813434B62A5
:1028400000BF0C37BD465DF8047B704780B483B091
:1028500000AF78604FF0B0435B6A23F030024FF076
:10286000B0417B6813434B6200BF0C37BD465DF837
:10287000047B704780B483B000AF78604FF0B04302
:10288000D3F8883023F003024FF0B0417B68134344
:10289000C1F8883000BF0C37BD465DF8047B704737
:1028A00080B483B000AF78604FF0B043D3F8883085
:1028B00023F440624FF0B0417B681343C1F8883085
:1028C00000BF0C37BD465DF8047B704780B483B011
:1028D00000AF78604FF0B043D3F888207B681B09C5
:1028E00003F47F23DB431A407B681B0103F47F233F
:1028F0004FF0B0411343C1F8883000BF0C37BD46DC
:102900005DF8047B704780B483B000AF78604FF00F
:10291000B043D3F888207B681B0C1B04DB431A40B0
:102920007B681B044FF0B0411343C1F8883000BFEF
:102930000C37BD465DF8047B704780B483B000AFB0
:1029400078604FF0B043D3F8883023F440024FF062
:10295000B0417B681343C1F8883000BF0C37BD46D7
:102960005DF8047B704780B483B000AF78604FF0AF
:10297000B043D3F8883023F040424FF0B0417B6839
:102980001343C1F8883000BF0C37BD465DF8047BA7
:10299000704780B483B000AF78604FF0B043D3F895
:1029A000883023F040624FF0B0417B681343C1F898
:1029B000883000BF0C37BD465DF8047B704780B59A
:1029C00082B000AF78607868FFF7E3FF00BF083798
:1029D000BD4680BD80B483B000AF78604FF0B04397
:1029E000D3F8883023F040524FF0B0417B68134356
:1029F000C1F8883000BF0C37BD465DF8047B7047D6
:102A000080B483B000AF78604FF0B043D3F890301B
:102A100023F440724FF0B0417B681343C1F890300B
:102A200000BF0C37BD465DF8047B704780B400AF33
:102A30004FF0B043D3F8903003F440731846BD46CE
:102A40005DF8047B704780B400AF4FF0B043D3F81B
:102A500090304FF0B04243F48033C2F8903000BF62
:102A6000BD465DF8047B704780B400AF4FF0B043C3
:102A7000D3F890304FF0B04223F48033C2F8903056
:102A800000BFBD465DF8047B704780B400AF4FF0D7
:102A9000B0431B684FF0B04243F08063136000BF47
:102AA000BD465DF8047B704780B400AF4FF0B04383
:102AB0001B684FF0B04223F08063136000BFBD4637
:102AC0005DF8047B704780B400AF4FF0B0431B68E3
:102AD00003F00063B3F1006F01D1012300E0002394
:102AE0001846BD465DF8047B704780B588B000AFDE
:102AF00078600023FB770023BB777B681B6803F0BB
:102B00004003002B34D07B681B6BB3F5400F21D002
:102B1000B3F5400F1BD8B3F5000F1DD0B3F5000F70
:102B200015D8002B0BD0B3F5800F10D14FF0B04368
:102B3000DB684FF0B04243F48033D3600DE07B6834
:102B40000433184600F047F90346FB7705E00123FC
:102B5000FB7702E000BF00E000BFFB7F002B05D148
:102B60007B681B6B1846FFF7E8FE01E0FB7FBB7735
:102B70007B681B6803F40063002B46D0FFF756FF09
:102B8000B8617B681B6CBA699A423CD0FEF768FC5E
:102B9000BB69002B05D17B681B6C1846FFF730FF23
:102BA0002EE04FF0B043D3F890307B61FFF74BFF3E
:102BB000FFF75AFF7B6923F440727B681B6C134359
:102BC0007B614FF0B0427B69C2F89030FFF7F0FDB7
:102BD0000346012B14D1FEF76FF938610BE0FEF7C5
:102BE0006BF902463B69D31A41F28832934202D90B
:102BF0000323FB7704E0FFF7EDFD0346012BEED145
:102C0000FB7FBB7701E0FB7FBB777B681B6803F032
:102C10000103002B04D07B689B691846FFF72AFE4E
:102C20007B681B6803F00203002B04D07B68DB6920
:102C30001846FFF735FE7B681B6803F01003002B76
:102C400004D07B689B6A1846FFF75DFE7B681B68B3
:102C500003F02003002B04D07B68DB6A1846FFF7E3
:102C600052FE7B681B6803F00403002B04D07B68D2
:102C70001B6A1846FFF72AFE7B681B6803F00803EF
:102C8000002B04D07B685B6A1846FFF71FFE7B6849
:102C90001B6803F48073002B22D07B685B6B1846A3
:102CA000FFF78DFE7B685B6BB3F1006F07D14FF0D0
:102CB000B043DB684FF0B04243F08073D3607B6871
:102CC0005B6BB3F1806F0BD17B680433184600F067
:102CD000DDF80346FB77FB7F002B01D0FB7FBB7742
:102CE0007B681B6803F40073002B2BD07B689B6B05
:102CF000B3F1804F08D07B689B6BB3F1004F03D0DA
:102D00007B689B6B002B05D17B689B6B1846FFF79C
:102D10002AFE0AE07B689B6B23F08053FB60002057
:102D2000FFF721FEF868FFF734FE7B689B6BB3F179
:102D3000C05F07D14FF0B043DB684FF0B04243F0C3
:102D40008073D3607B681B6803F48063002B22D000
:102D50007B68DB6B1846FFF73DFE7B68DB6BB3F1EE
:102D6000005F07D14FF0B043DB684FF0B04243F44F
:102D70008033D3607B68DB6BB3F1805F0BD17B6802
:102D80000433184600F0DDF80346FB77FB7F002B89
:102D900001D0FB7FBB777B681B6803F48053002B5B
:102DA00004D07B685B6C1846FFF726FD7B681B68C8
:102DB00003F40053002B09D07B68DB6C1846FFF747
:102DC00045FD7B689B6C1846FFF72CFDBB7F1846C2
:102DD0002037BD4680BD80B584B000AF7860002349
:102DE000FB73FFF761FEFEF767F8B86009E0FEF7D6
:102DF00063F80246BB68D31A022B02D90323FB7384
:102E000004E0FFF760FE0346002BF0D1FB7B002BB4
:102E100037D14FF0B0431B6923F4FE427B681B6837
:102E20001B024FF0B04113430B614FF0B0431B69DD
:102E300023F478127B685B684FF0B04113430B6159
:102E4000FFF723FEFEF738F8B86009E0FEF734F824
:102E50000246BB68D31A022B02D90323FB7304E09A
:102E6000FFF731FE0346012BF0D1FB7B002B08D18D
:102E70004FF0B0431A697B681B694FF0B0411343B0
:102E80000B61FB7B18461037BD4680BD80B584B012
:102E900000AF78600023FB73FFF706FEFEF70CF827
:102EA000B86009E0FEF708F80246BB68D31A022BA7
:102EB00002D90323FB7304E0FFF705FE0346002B52
:102EC000F0D1FB7B002B37D14FF0B0431B6923F4CB
:102ED000FE427B681B681B024FF0B04113430B613D
:102EE0004FF0B0431B6923F060627B689B684FF032
:102EF000B04113430B61FFF7C8FDFDF7DDFFB8607C
:102F000009E0FDF7D9FF0246BB68D31A022B02D9AC
:102F10000323FB7304E0FFF7D6FD0346012BF0D13A
:102F2000FB7B002B08D14FF0B0431A697B681B690B
:102F30004FF0B04113430B61FB7B18461037BD4681
:102F400080BD80B584B000AF78600023FB73FFF7CD
:102F5000ABFDFDF7B1FFB86009E0FDF7ADFF02463C
:102F6000BB68D31A022B02D90323FB7304E0FFF7DB
:102F7000AAFD0346002BF0D1FB7B002B37D14FF08D
:102F8000B0431B6923F4FE427B681B681B024FF0B1
:102F9000B04113430B614FF0B0431B6923F0604213
:102FA0007B68DB684FF0B04113430B61FFF76DFDA9
:102FB000FDF782FFB86009E0FDF77EFF0246BB68BF
:102FC000D31A022B02D90323FB7304E0FFF77BFD26
:102FD0000346012BF0D1FB7B002B08D14FF0B0430F
:102FE0001A697B681B694FF0B04113430B61FB7B8F
:102FF00018461037BD4680BD80B483B000AF7860FE
:103000004FF0B043D3F888207B68134018460C3744
:10301000BD465DF8047B704780B483B000AF786034
:103020004FF0B043D3F888207B68134018460C3724
:10303000BD465DF8047B704780B582B000AF786014
:103040007B68002B01D1012342E07B68D3F88830F4
:10305000002B06D17B68002283F884207868FDF776
:103060001DFC7B682422C3F888207B681B681A68D3
:103070007B681B6822F001021A607B689B6A002B48
:1030800002D0786800F0DEFA786800F0B3F8034602
:10309000012B01D101231BE07B681B685A687B6808
:1030A0001B6822F490425A607B681B689A687B68B0
:1030B0001B6822F02A029A607B681B681A687B688A
:1030C0001B6842F001021A60786800F05DFB03465D
:1030D00018460837BD4680BD80B58AB002AFF8609B
:1030E000B9603B601346FB80FB68D3F88830202B27
:1030F0007BD1BB68002B02D0FB88002B01D10123C0
:1031000074E0FB680022C3F89020FB682122C3F81A
:103110008820FDF7D1FE7861FB68FA88A3F8542077
:10312000FB68FA88A3F85620FB689B68B3F5805FBC
:1031300008D1FB681B69002B04D10023FB61BB682D
:10314000BB6103E0BB68FB610023BB6130E03B680F
:1031500000937B6900228021F86800F0BFFB0346E2
:10316000002B05D0FB682022C3F8882003233DE014
:10317000FB69002B0BD1BB691B881A46FB681B68D7
:10318000C2F308029A62BB690233BB6107E0FB69C4
:103190001A78FB681B689A62FB690133FB61FB6864
:1031A000B3F856309BB2013B9AB2FB68A3F85620A5
:1031B000FB68B3F856309BB2002BC8D13B68009334
:1031C0007B6900224021F86800F088FB0346002B51
:1031D00005D0FB682022C3F88820032306E0FB68A3
:1031E0002022C3F88820002300E00223184620375D
:1031F000BD4680BD2DE9B04F8CB000AF7861002393
:1032000087F82A307B699A687B691B691A437B6956
:103210005B691A437B69DB691343FB627B691B684B
:103220001A68AF4B13407A691268F96A0B4313604E
:103230007B691B685B6823F440517B69DA687B69B2
:103240001B680A435A607B699B69FB627B691B6848
:10325000A44A934204D07B691B6AFA6A1343FB6257
:103260007B691B689B6823F06E4323F430637A69A3
:103270001268F96A0B4393607B691B68DB6A23F071
:103280000F017B695A6A7B691B680A43DA627B69B2
:103290001B68954A934225D10320FFF7ADFE0346F4
:1032A000032B1BD801A252F823F000BFBD32010846
:1032B000CD320108C5320108D5320108012387F853
:1032C0002B3042E0022387F82B303EE0042387F8BE
:1032D0002B303AE0082387F82B3036E0102387F8AC
:1032E0002B3032E07B691B687E4A93422AD14FF42F
:1032F0004060FFF791FE0346B3F5406F1AD0B3F577
:10330000406F1BD8B3F5006F0CD0B3F5006F15D824
:10331000002B03D0B3F5806F08D00FE0002387F8AF
:103320002B3012E0022387F82B300EE0042387F8BD
:103330002B300AE0082387F82B3006E0102387F8AB
:103340002B3002E0102387F82B307B691B68654A1D
:10335000934240F0978097F82B30082B23D801A296
:1033600052F823F089330108A7330108913301088B
:10337000A733010897330108A7330108A7330108D1
:10338000A73301089F330108FFF732F9786210E094
:10339000564B7B620DE0FFF7ABF8786209E04FF423
:1033A00000437B6205E000237B62012387F82A301B
:1033B00000BF7B6A002B00F02B817B695B6A4C4A63
:1033C00032F813301A467B6AB3FBF2F3BB617B69B8
:1033D0005A6813465B001344BA699A4205D37B6965
:1033E0005B681B03BA699A4203D9012387F82A3024
:1033F0000EE17B6A0022BB60FA607B695B6A3C4A33
:1034000032F813309BB200223B607A60D7E9002388
:10341000D7E90201FCF704FF02460B4610461946A5
:103420004FF000024FF000030B0243EA1063020268
:1034300079694968490800200C46054612EB0408E2
:1034400043EB05097B695B6800229A469346524626
:103450005B4640464946FCF7E3FE02460B461346F0
:103460003B623B6AB3F5407F08D33B6AB3F5801FEC
:1034700004D27B691B683A6ADA60C9E0012387F8E5
:103480002A30C5E07B69DB69B3F5004F6DD197F851
:103490002B30013B072B2DD801A252F823F000BF9F
:1034A000C1340108C9340108F5340108CF340108DA
:1034B000F5340108F5340108F5340108D734010862
:1034C000FFF7ACF878621BE0084B7B6218E0FFF76F
:1034D0000FF8786214E04FF400437B6210E000BF05
:1034E000F369FFCF00800040003801400024F40061
:1034F000D04C010800237B62012387F82A3000BFEB
:103500007B6A002B00F084807B695B6A4B4A32F84F
:1035100013301A467B6AB3FBF2F35A007B695B688F
:103520005B081A447B695B68B2FBF3F33B623B6A5E
:103530000F2B16D93B6AB3F5803F12D23B6A9BB280
:1035400023F00F03FB833B6A5B089BB203F0070386
:103550009AB2FB8B1343FB837B691B68FA8BDA609F
:1035600056E0012387F82A3052E097F82B30013BD0
:10357000072B22D801A252F823F000BF9D35010885
:10358000A5350108BB350108AB350108BB3501087D
:10359000BB350108BB350108B3350108FFF73EF81C
:1035A000786210E0264B7B620DE0FEF7A1FF7862A7
:1035B00009E04FF400437B6205E000237B620123B6
:1035C00087F82A3000BF7B6A002B21D07B695B6AB9
:1035D0001A4A32F813301A467B6AB3FBF2F27B695F
:1035E0005B685B081A447B695B68B2FBF3F33B6280
:1035F0003B6A0F2B09D93B6AB3F5803F05D23B6A82
:103600009AB27B691B68DA6002E0012387F82A30EE
:103610007B690122A3F86A207B690122A3F8682054
:103620007B6900225A677B6900229A6797F82A30E3
:1036300018463037BD46BDE8B08F00BFD04C0108FA
:103640000024F40080B483B000AF78607B689B6A8C
:1036500003F00803002B0AD07B681B685B6823F427
:1036600000417B689A6B7B681B680A435A607B68E1
:103670009B6A03F00103002B0AD07B681B685B6820
:1036800023F400317B68DA6A7B681B680A435A605E
:103690007B689B6A03F00203002B0AD07B681B68DF
:1036A0005B6823F480317B681A6B7B681B680A4374
:1036B0005A607B689B6A03F00403002B0AD07B6886
:1036C0001B685B6823F480217B685A6B7B681B68EE
:1036D0000A435A607B689B6A03F01003002B0AD0F0
:1036E0007B681B689B6823F480517B68DA6B7B687E
:1036F0001B680A439A607B689B6A03F02003002BD7
:103700000AD07B681B689B6823F400517B681A6CA5
:103710007B681B680A439A607B689B6A03F04003DE
:10372000002B1AD07B681B685B6823F480117B68D0
:103730005A6C7B681B680A435A607B685B6CB3F504
:10374000801F0AD17B681B685B6823F4C0017B681B
:103750009A6C7B681B680A435A607B689B6A03F01B
:103760008003002B0AD07B681B685B6823F4002170
:103770007B68DA6C7B681B680A435A6000BF0C37B1
:10378000BD465DF8047B704780B598B002AF7860A5
:103790007B680022C3F89020FDF78EFB78657B687C
:1037A0001B681B6803F00803082B2FD16FF07E43C2
:1037B00000937B6D00224FF40011786800F08EF8C2
:1037C0000346002B22D07B681B68BB63BB6B53E8AE
:1037D000003F7B637B6B23F080033B657B681B684A
:1037E0001A463B6D7B643A64396C7A6C41E800237D
:1037F000FB63FB6B002BE6D17B682022C3F888209B
:103800007B68002283F88420032363E07B681B68C5
:103810001B6803F00403042B49D16FF07E4300932F
:103820007B6D00224FF48001786800F057F8034662
:10383000002B3CD07B681B687B627B6A53E8003FAF
:103840003B623B6A23F49073FB647B681B681A46F7
:10385000FB6C3B63FA62F96A3A6B41E80023BB6296
:10386000BB6A002BE6D17B681B6808333B613B6970
:1038700053E8003FFB60FB6823F00103BB647B68F7
:103880001B680833BA6CFA61BB61B969FA6941E82F
:1038900000237B617B69002BE5D17B682022C3F884
:1038A0008C207B68002283F88420032312E07B684D
:1038B0002022C3F888207B682022C3F88C207B68F4
:1038C0000022DA667B6800221A677B68002283F890
:1038D0008420002318465837BD4680BD80B584B08B
:1038E00000AFF860B9603B601346FB714FE0BB6905
:1038F000B3F1FF3F4BD0FDF7DFFA02463B68D31A26
:10390000BA699A4202D3BB69002B01D103234EE06E
:10391000FB681B681B6803F00403002B37D0BB68EF
:10392000802B34D0BB68402B31D0FB681B68DB692F
:1039300003F00803082B10D1FB681B6808221A62E9
:10394000F86800F038F8FB680822C3F89020FB689C
:10395000002283F88420012329E0FB681B68DB69CF
:1039600003F40063B3F5006F11D1FB681B684FF4DB
:1039700000621A62F86800F01EF8FB682022C3F8A3
:103980009020FB68002283F8842003230FE0FB686B
:103990001B68DA69BB681340BA689A420CBF0123FE
:1039A0000023DBB21A46FB799A42A0D000231846C6
:1039B0001037BD4680BD80B495B000AF78607B689D
:1039C0001B687B637B6B53E8003F3B633B6B23F4DB
:1039D0009073FB647B681B681A46FB6C3B64FA635C
:1039E000F96B3A6C41E80023BB63BB6B002BE6D15B
:1039F0007B681B6808333B623B6A53E8003FFB610E
:103A0000FB6923F0805323F00103BB647B681B68D0
:103A10000833BA6CFA62BB62B96AFA6A41E80023F9
:103A20007B627B6A002BE3D17B68DB6E012B18D1B4
:103A30007B681B68FB60FB6853E8003FBB60BB68AA
:103A400023F010037B647B681B681A467B6CBB61A8
:103A50007A617969BA6941E800233B613B69002BCF
:103A6000E6D17B682022C3F88C207B680022DA66CE
:103A70007B6800225A6700BF5437BD465DF8047B5F
:103A8000704780B485B000AF78607B6893F884306D
:103A9000012B01D1022327E07B68012283F88420D7
:103AA0007B682422C3F888207B681B681B68FB6046
:103AB0007B681B681A687B681B6822F001021A6029
:103AC000FB6823F00053FB607B6800225A667B682A
:103AD0001B68FA681A607B682022C3F888207B681C
:103AE000002283F88420002318461437BD465DF871
:103AF000047B704780B584B000AF786039607B6824
:103B000093F88430012B01D102232DE07B68012240
:103B100083F884207B682422C3F888207B681B6894
:103B20001B68FB607B681B681A687B681B6822F057
:103B300001021A607B681B689B6823F060417B6808
:103B40001B683A680A439A60786800F04FF87B680F
:103B50001B68FA681A607B682022C3F888207B689B
:103B6000002283F88420002318461037BD4680BD0C
:103B700080B584B000AF786039607B6893F884309A
:103B8000012B01D102232DE07B68012283F88420E0
:103B90007B682422C3F888207B681B681B68FB6055
:103BA0007B681B681A687B681B6822F001021A6038
:103BB0007B681B689B6823F060617B681B683A68C0
:103BC0000A439A60786800F011F87B681B68FA680D
:103BD0001A607B682022C3F888207B68002283F863
:103BE0008420002318461037BD4680BD80B485B0C0
:103BF00000AF78607B685B6E002B08D17B68012288
:103C0000A3F86A207B680122A3F8682031E008232A
:103C1000FB730823BB737B681B689B685B0EDBB27E
:103C200003F007037B737B681B689B685B0FDBB249
:103C300003F007033B73BB7B3A7B11498A5C02FBB1
:103C400003F33A7B0F498A5C93FBF2F39AB27B68E9
:103C5000A3F86A20FB7B7A7B09498A5C02FB03F3A9
:103C60007A7B08498A5C93FBF2F39AB27B68A3F8EB
:103C7000682000BF1437BD465DF8047B704700BF65
:103C8000E84C0108F04C0108002310B50446C0E9D7
:103C90000033C0E90433836081814366C28183615C
:103CA000194608225C3000F0F9F90D4B63620D4BA8
:103CB000A3620D4BE3620D4B23630D4B24629C42C8
:103CC00006D003F16802944202D0D0339C4205D161
:103CD00004F15800BDE8104000F058BA10BD00BF14
:103CE000ED3E01080F3F0108473F01086B3F010807
:103CF00044010020024A0349034800F069B800BFAC
:103D000030000020294A01084000002041680C4B87
:103D1000994210B5044601D000F086FEA168094B17
:103D2000994202D0204600F07FFEE168064B99429E
:103D300004D02046BDE8104000F076BE10BD00BFA4
:103D400044010020AC0100201402002010B50B4BF0
:103D50000B4C0C4A1A60204600220421FFF794FF06
:103D600004F1680001220921FFF78EFF04F1D00061
:103D70000222BDE810401221FFF786BF7C0200201E
:103D800044010020F53C0108014800F000BA00BFE2
:103D900085020020014800F0FBB900BF8502002029
:103DA00010B50446FFF7F0FF236A1BB1BDE81040D1
:103DB000FFF7F0BF044B2362044B1B68002BF5D1C7
:103DC000FFF7C4FFF2E700BF0D3D01087C020020B1
:103DD0002DE9F8430746884614460026D4E90195A4
:103DE000B9F1010905D52468002CF7D13046BDE8AA
:103DF000F883AB89012B07D9B5F90E30013303D015
:103E000029463846C04706436835E9E70FB407B589
:103E1000064904AB086853F8042B8168019300F04D
:103E2000DBFA03B05DF804EB04B070473C000020FF
:103E3000036A70B5846805460E460BB9FFF7B0FFFC
:103E4000636EDB0705D4A389980502D4A06D00F04A
:103E50009EF9A389190702D52369002B35D1214684
:103E6000284600F0C5F880B34FF0FF35636EDA07DF
:103E700005D4A3899B0502D4A06D00F089F92846DA
:103E800070BD002B04DAA2699A4217DC0A2915D00A
:103E900023685A1C22601970A36816F8011F013BA1
:103EA000A3600029EDD1002B11DA22460A21284611
:103EB00000F05FF80130D7D00A25D7E72246284620
:103EC00000F057F80130E7D1CEE7013EE4E7236880
:103ED0005A1C22600A221A70EEE70000024B0146CB
:103EE0001868FFF7A5BF00BF3C00002010B50C46C6
:103EF000B1F90E1000F0FCF80028ABBF636DA38988
:103F00001B1823F48053ACBF6365A38110BD2DE95A
:103F1000F0411F468B89DB0505460C46164605D544
:103F2000B1F90E100223002200F0D0F8A389B4F9F1
:103F30000E1023F48053A38132463B462846BDE849
:103F4000F04100F0E7B810B50C46B1F90E1000F0E2
:103F5000BDF8431CA38915BF606523F4805343F467
:103F60008053A38118BFA38110BDB1F90E1000F0DA
:103F70009DB8F8B50E461446054618B1036A0BB94C
:103F8000FFF70EFFA369A360A3891A0701D5236970
:103F900043B92146284600F02BF818B14FF0FF37FF
:103FA0003846F8BD23682269981A6369F6B28342DD
:103FB000374605DC2146284600F036FD0028EDD1C5
:103FC000A368013BA36023685A1C22601E706269CB
:103FD000431C9A4204D0A389DB07E1D50A2EDFD126
:103FE0002146284600F020FD0028D9D0D6E7000061
:103FF00038B5294B054618680C4618B1036A0BB949
:10400000FFF7CEFEB4F90C30190722D4DA0607D434
:1040100009222A6043F04003A3814FF0FF3033E0D0
:10402000580712D5616B41B104F14403994202D0A3
:10403000284600F0AFF800236363A38923F024032C
:10404000A3810023636023692360A38943F00803ED
:10405000A38123694BB9A38903F42073B3F5007FCF
:1040600003D02146284600F02DFDB4F90C3013F0A2
:1040700001020AD00022A26062695242A261226952
:1040800042B913F08000C5D138BD990758BF6269A5
:10409000A260F4E70020F7E73C000020024403465A
:1040A000934200D1704703F8011BF9E738B5064D7C
:1040B0000023044608462B60FCF79EFC431C02D1FB
:1040C0002B6803B1236038BD8002002038B5074D4E
:1040D00004460846114600222A601A46FCF7B3FC43
:1040E000431C02D12B6803B1236038BD800200203D
:1040F00038B5074D04460846114600222A601A4684
:10410000FCF741FC431C02D12B6803B1236038BD8E
:104110008002002038B5074D0446084611460022AB
:104120002A601A46FCF74CFC431C02D12B6803B1F1
:10413000236038BD80020020014B1868704700BF23
:104140003C00002070B50D4D0D4C641BA4100026E2
:10415000A64209D10B4D0C4C00F022FD641BA410AB
:104160000026A64205D170BD55F8043B984701369C
:10417000EEE755F8043B98470136F2E7344D010865
:10418000344D0108344D0108384D0108704770471F
:104190007047000038B50546002941D051F8043C6D
:1041A0000C1F002BB8BFE41800F0E0F81D4A13689C
:1041B00033B9636014602846BDE8384000F0DCB8CD
:1041C000A34208D9206821188B4201BF19685B6897
:1041D00009182160EDE71A465B680BB1A342FAD9D2
:1041E00011685018A0420BD1206801445018834236
:1041F0001160E0D118685B68536008441060DAE72A
:1042000002D90C232B60D6E7206821188B4204BF0B
:1042100019685B68636004BF091821605460CAE7CD
:1042200038BD00BF8C02002070B50F4E0C463168BF
:10423000054611B900F0A4FC30602146284600F084
:104240009FFC431C03D14FF0FF34204670BDC41CBB
:1042500024F00304A042F8D0211A284600F090FC74
:104260000130F2D1EFE700BF880200202DE9F843CA
:10427000CD1C25F0030508350C2D38BF0C25002D6D
:10428000064601DBA94204D90C2333600020BDE8B7
:10429000F883DFF8D48000F069F8D8F800301C46C5
:1042A00044BB29463046FFF7BFFF431C044658D1A4
:1042B000D8F800402746002F43D1002C4BD023686C
:1042C0003946304604EB030900F05AFC814542D1DF
:1042D00021686D1A29463046FFF7A6FF01303AD013
:1042E00023682B442360D8F800305A6862BBC8F8B2
:1042F00000700FE02268521B20D40B2A17D96119D5
:10430000A342256018BF5960636808BFC8F8001051
:1043100062514B60304600F02FF804F10B00231D72
:1043200020F00700C21A1CBF1B1AA350AFE7626837
:10433000A3420CBFC8F800205A60EBE7234664682C
:10434000AEE73C467F68B6E71A465B68A342FBD1FE
:1043500000235360DEE70C233360304600F00CF896
:1043600094E70560D6E700BF8C0200200148FFF704
:104370000EBF00BF840200200148FFF709BF00BF45
:10438000840200209368013B002B10B4936008DA8C
:104390009469A34201DB0A2903D15DF8044BFFF7BE
:1043A000E8BD1368581C1060197008465DF8044B8E
:1043B0007047F8B506460F461446D518AC4201D1F1
:1043C000002007E014F8011B3A463046FFF7DAFFF9
:1043D000431CF3D1F8BD00002DE9F04F0D469DB010
:1043E00014469846064618B1036A0BB9FFF7D8FC85
:1043F0006B6ED90705D4AB899A0502D4A86DFFF777
:10440000C6FEAB891B0701D52B699BB929463046EF
:10441000FFF7EEFD70B16B6EDC0704D54FF0FF3097
:104420001DB0BDE8F08FAB899805F7D4A86DFFF7F4
:10443000AFFEF3E70023099320238DF82930CDF850
:104440000C803023DFF8AC818DF82A304FF0010961
:1044500023469A4613F8012B0AB1252AF9D1BAEB63
:10446000040B0BD05B46224629463046FFF7A1FFDE
:10447000013000F0A780099A5A4409929AF8003056
:10448000002B00F09F8000234FF0FF32CDE9052381
:104490000AF1010A049307938DF853301A93544696
:1044A000052214F8011B5348FBF76AFE049AD8B999
:1044B000D10644BF20238DF85330130744BF2B236C
:1044C0008DF853309AF800302A2B15D0079A5446AD
:1044D00000204FF00A0C214611F8013B303B092B1C
:1044E0004BD9B0B1079214E0A0EB080309FA03F32B
:1044F00013430493A246D2E7039B191D1B68039143
:10450000002BBBBF5B4242F0020207930793B8BF88
:10451000049223782E2B0AD163782A2B32D1039B65
:104520001A1D1B68039243EAE37302340593DFF814
:10453000D4A0217803225046FBF722FE38B1049B19
:10454000A0EB0A004022824013430134049314F884
:10455000011B29488DF828100622FBF711FE0028C0
:104560003FD0264B1BBB039B073323F007030833C5
:104570000393099B3B4409936AE70CFB02320C4608
:104580000120A8E700230134059319464FF00A0CD7
:10459000204610F8012B303A092A03D9002BC6D047
:1045A0000591C4E70CFB012104460123F0E703ABAE
:1045B00000932A46124B04A93046AFF30080074609
:1045C000781CD6D16B6ED90705D4AB899A0502D475
:1045D000A86DFFF7DDFDAB895B063FF51FAF0998BE
:1045E0001EE703AB00932A46054B04A9304600F0B2
:1045F00079F8E4E7F84C0108024D010800000000DA
:10460000B3430108FE4C01082DE9F04716469846D1
:104610008A680B69DDF820909342B8BF1346336077
:1046200091F8432007460C460AB1013333602368F2
:10463000990642BF336802333360256815F00605DA
:1046400006D104F1190AE36832689B1AAB4226DCF2
:1046500094F843302268003B18BF012392062BD404
:1046600004F1430241463846C84701301ED0236852
:10467000226903F00603042B02BFE5683368ED1AD4
:10468000A3680CBF25EAE57500259342C4BF9B1AB9
:10469000ED1800261A34B5421AD1002008E0012393
:1046A000524641463846C847013003D14FF0FF30EB
:1046B000BDE8F0870135C6E7E1185A1C302081F8C3
:1046C0004300224494F8451082F843100233C7E7B0
:1046D0000123224641463846C8470130E6D001361C
:1046E000D9E700002DE9FF470F7E0C9E782F9146F9
:1046F00080460C469A4601F1430207D8622F0AD839
:10470000002F00F0D180582F00F0B88004F142064D
:1047100084F842703AE0A7F16303152BF6D801A1A3
:1047200051F823F07D470108914701080D47010822
:104730000D4701080D4701080D4701089147010881
:104740000D4701080D4701080D4701080D470108F5
:104750008F480108BB470108494801080D47010877
:104760000D470108B14801080D470108BB47010882
:104770000D4701080D4701085148010833681A1D0B
:104780001B68326004F1420684F8423001239CE049
:1047900033682068191D3160060601D51D6803E0E5
:1047A0004506FBD5B3F90050002D03DA2D236D42E9
:1047B00084F8433058480A2311E02168336808061A
:1047C00053F8045B02D4490648BFADB26F2F52487C
:1047D000336014BF0A230823002184F8431066685D
:1047E000A660002E05DB21682E4321F00401216024
:1047F0004BD01646B5FBF3F103FB1157C75D06F826
:10480000017D2F46BB420D46F4D9082B0BD12368FE
:10481000DF0708D5236961689942DEBF302306F8B7
:10482000013C06F1FF36921B2261CDF800A04B46F9
:1048300003AA21464046FFF7E7FE01304AD14FF078
:10484000FF3004B0BDE8F087236843F02003236005
:104850003248782784F84570236831681F0651F87C
:10486000045B02D45F0648BFADB23160D90744BFD4
:1048700043F0200323601DB11023ADE72648E9E78C
:10488000236823F020032360F6E71646BDE733686C
:1048900025686169181D30602E061B6801D51960F6
:1048A00002E06806FBD51980002323611646BCE7A9
:1048B00033681A1D32601E68626800213046FBF7BB
:1048C0005FFC08B1801B606063682361002384F88B
:1048D0004330AAE72369324649464046D047013073
:1048E000ADD023689B0713D4E068039B9842B8BF00
:1048F0001846A6E70123324649464046D0470130D4
:104900009DD00135E36803995B1AAB42F2DCEBE71B
:10491000002504F11906F5E7094D01081A4D0108B3
:10492000B1F90C202DE9F041160705460C4654D488
:104930004B68002B02DC0B6C002B48DDE66A002E76
:1049400045D0002312F480522F68216A2B6030D0AA
:10495000626DA389590705D56368D21A636B0BB1E1
:10496000236CD21A0023E66A216A2846B047431C0A
:10497000A38906D129681D292BD82A4ACA40D607FF
:1049800027D500226260D9042269226004D5421C26
:1049900001D12B6803B96065616B2F60B9B104F177
:1049A0004403994202D02846FFF7F4FB00236363D7
:1049B0000DE001232846B0470246501CC9D12B68A0
:1049C000002BC6D01D2B01D0162B1ED12F6000202E
:1049D00022E043F040031BB21BE00F69002FF6D02A
:1049E00093070E6808BF4B690F6018BF0023A6EB42
:1049F00007088B60B8F1000FE9DD216AA66A43461B
:104A00003A462846B047002808DCB4F90C3043F099
:104A10004003A3814FF0FF30BDE8F0810744A8EBCD
:104A20000008E7E70100402038B50B6905460C4651
:104A300013B90025284638BD18B1036A0BB9FFF732
:104A4000AFF9B4F90C30002BF3D0626ED00704D468
:104A5000990502D4A06DFFF79AFB28462146FFF77F
:104A60005FFF636EDA070546E4D4A3899B05E1D4B2
:104A7000A06DFFF78DFBDDE770B50C46B1F90E10A8
:104A8000002996B015461E460DDAA38913F0800F53
:104A90004FF0000114BF40234FF4806300203160C9
:104AA0002B6016B070BD6A4600F048F80028ECDBB9
:104AB000019901F47041A1F50053594259414FF455
:104AC0008063EBE78B89F7B59D0706460C4607D553
:104AD00004F14703236023610123636103B0F0BD48
:104AE00001AB6A46FFF7C8FF009F054639463046CE
:104AF000FFF7BCFB48B9B4F90C309A05EED423F0AB
:104B0000030343F00203A381E2E7A389206043F09B
:104B10008003A381019BC4E904075BB1B4F90E10C3
:104B2000304600F01DF828B1A38923F0030343F0B9
:104B30000103A381A3891D43A581CFE738B5074DA4
:104B400000230446084611462B60FBF761FF431C17
:104B500002D12B6803B1236038BD00BF8002002062
:104B600038B5064D0023044608462B60FBF760FF6E
:104B7000431C02D12B6803B1236038BD80020020A2
:104B800038B5064D0023044608462B60FBF768FF46
:104B9000431C02D12B6803B1236038BD8002002082
:104BA000F8B500BFF8BC08BC9E467047F8B500BF1A
:084BB000F8BC08BC9E467047EA
:104BB8005374617274696E67204170706C696361C7
:104BC80074696F6E2825642E2564290D0A0000007B
:104BD80053616C61616D2066726F6D207468652029
:104BE8004170702E0D00000012000000240000002B
:104BF8003600000040000000060000000C00000025
:104C08001000000000000000010000000200000089
:104C18000300000001000000030000000500000080
:104C28000100000001000000060000000A0000006A
:104C3800200000000200000004000000080000003E
:104C4800100000004000000080000000000100008B
:104C5800000200000000000000000000000000004A
:104C68000000000001000000020000000300000036
:104C780004000000A0860100400D0300801A060011
:104C880000350C0040420F0080841E0000093D00E2
:104C980000127A000024F40000366E010048E80192
:104CA800006CDC02000000000000000000000000B2
:104CB80000000000200001000200000010000100B8
:104CC800020000000A0607000100020004000600B6
:104CD80008000A000C0010002000400080000001BD
:104CE8000101010307010000080402040801010191
:104CF800232D302B2000686C4C00656667454647BD
:104D0800003031323334353637383941424344453F
:104D180046003031323334353637383961626364AE
:044D280065660000BC
:084D2C0054B4FF7F01000000F8
:044D3400650101080C
:044D3800410101082C
:104D3C00E803000000093D0000040048000400489E
:104D4C000004004800080048000C0048000C004813
:104D5C001000000001000000000000000300000033
:104D6C00440100204000002000000000440100200D
:104D7C00AC01002014020020000000000000000024
:104D8C000000000000000000000000000000000017
:104D9C000000000000000000000000000000000007
:104DAC0000000000000000000000000000000000F7
:044DBC0000000000F3
:0400000508010B954E
:00000001FF
